:100000000C9434000C9451000C9451000C94510049
:100010000C9451000C94C9000C9451000C945100A4
:100020000C9451000C947D000C9451000C945300DE
:100030000C9451000C9451000C9451000C945100FC
:100040000C9451000C9451000C9451000C945100EC
:100050000C9451000C9451000C9451000C945100DC
:100060000C9451000C94510011241FBECFEFD8E026
:10007000DEBFCDBF11E0A0E0B1E0E6EEF9E002C0E6
:1000800005900D92A230B107D9F721E0A2E0B1E0CE
:1000900001C01D92A930B207E1F70E94F0010C9453
:1000A000F1040C9400001F920F9200905F000F92D9
:1000B00011248F939F93EF93FF93CF93DF93CDB74B
:1000C000DEB71092020181E890E0FC0110828FE619
:1000D00090E0FC01108288E890E0FC01118210821F
:1000E0000000DF91CF91FF91EF919F918F910F9041
:1000F00000925F000F901F9018951F920F92009032
:100100005F000F9211242F933F938F939F93EF9350
:10011000FF93CF93DF93CDB7DEB780910501909128
:1001200006010196909306018093050180910501D7
:100130009091060187329740E8F083E590E023E54F
:1001400030E0F90120812E7FFC01208383E590E0DF
:1001500023E530E0F9012081217F2460FC01208328
:1001600083E590E023E530E0F90120812160FC0186
:10017000208388950000DF91CF91FF91EF919F91AF
:100180008F913F912F910F9000925F000F901F90E1
:1001900018951F920F9200905F000F9211242F93D9
:1001A0003F934F935F936F937F938F939F93AF93FF
:1001B000BF93EF93FF93CF93DF931F92CDB7DEB73B
:1001C00080910201882309F0F5C089E290E0FC01EA
:1001D000808189838981882F90E082709927892B7B
:1001E00091F51092060110920501809107019091FE
:1001F0000801FC018081873619F58BE290E02BE243
:1002000030E0F90120812160FC0120830E946B0213
:1002100080910701909108010196909308018093C5
:100220000701809104018F5F809304019091040184
:1002300080910301981708F4BBC00E946004B8C005
:100240000E94B104B5C08981882F90E088709927F9
:10025000892B91F5109206011092050180910701FA
:1002600090910801FC018081893719F58BE290E0BB
:100270002BE230E0F90120812460FC0120830E9400
:1002800086028091070190910801019690930801E0
:1002900080930701809104018F5F80930401909106
:1002A000040180910301981709F082C00E94600444
:1002B0007FC00E94B1047CC08981882F90E0807249
:1002C0009927892B91F510920601109205018091D2
:1002D000070190910801FC018081823719F58BE2BA
:1002E00090E02BE230E0F90120812061FC012083C5
:1002F0000E94A102809107019091080101969093BC
:10030000080180930701809104018F5F80930401AD
:100310009091040180910301981709F049C00E944F
:10032000600446C00E94B10443C0898188238CF1D7
:100330001092060110920501809107019091080129
:10034000FC018081823611F58BE290E02BE230E0F7
:10035000F90120812064FC0120830E94BC0280916D
:10036000070190910801019690930801809307017D
:10037000809104018F5F809304019091040180912A
:1003800003019817A9F40E94600412C00E94B104EE
:100390000FC08BE290E02BE230E0F90120812A7A55
:1003A000FC0120830E94D7021092060110920501E1
:1003B0000E94F10200000F90DF91CF91FF91EF9129
:1003C000BF91AF919F918F917F916F915F914F916D
:1003D0003F912F910F9000925F000F901F90189502
:1003E000CF93DF93CDB7DEB7E2970FB6F894DEBFB9
:1003F0000FBECDBF84E290E024E230E0F90120811D
:100400002860FC0120838AE290E025E5FC0120833E
:100410008BE290E02BE230E0F90120812A6AFC01B6
:10042000208388E690E024E0FC0120838DE690E0C4
:100430002AEAFC0120838AE790E027E8FC01208378
:100440008CE790E020E4FC01208381EB90E027E042
:10045000FC01208383E590E023E530E0F901208171
:10046000217FFC01208383E590E023E530E0F90162
:1004700020812160FC012083F89480E790E021E056
:10048000FC01208381E0809300011092040180919F
:100490000301823329F0809103018F5F8093030170
:1004A000CE0101960E945803CE0101969093080157
:1004B00080930701CE0101960E94AB0380E790E094
:1004C00021E0FC0120837894889500008091000150
:1004D0008130E1F3D1CFCF93DF93CDB7DEB780E7A3
:1004E00090E0FC01108283EB90E02FEFFC01208371
:1004F00080EB90E022E4FC01208381EB90E027E098
:10050000FC0120830000DF91CF910895CF93DF930A
:10051000CDB7DEB780E790E0FC01108283EB90E07E
:100520002FE7FC01208380EB90E022E4FC01208394
:1005300081EB90E027E0FC0120830000DF91CF9168
:100540000895CF93DF93CDB7DEB780E790E0FC014D
:10055000108283EB90E02FE3FC01208380EB90E09E
:1005600022E4FC01208381EB90E027E0FC01208362
:100570000000DF91CF910895CF93DF93CDB7DEB721
:1005800080E790E0FC01108283EB90E02FE1FC011A
:10059000208380EB90E022E4FC01208381EB90E05B
:1005A00027E0FC0120830000DF91CF910895CF93D5
:1005B000DF93CDB7DEB783EB90E0FC01108280EBD8
:1005C00090E0FC01108280E790E021E0FC012083B4
:1005D00081EB90E027E0FC0120830000DF91CF91C8
:1005E0000895CF93DF93CDB7DEB781E0809302010A
:1005F00088E890E024ED30E3FC013183208380E83B
:1006000090E0FC01108281E890E02BE0FC01208367
:100610008FE690E022E0FC0120830000DF91CF9183
:100620000895CF93DF9300D000D0CDB7DEB7198205
:100630001A8233C08981880F89838AE790E02AE78C
:1006400030E0F90120812064FC01208300008AE76A
:1006500090E0FC018081882F90E080719927892BA0
:10066000B1F38AE790E02AE730E0F90120812061C8
:10067000FC01208388E790E0FC0180818B8389E77F
:1006800090E0FC0180818C838B81982F917089810F
:10069000892B89838A818F5F8A838A81823050F295
:1006A00089810F900F900F900F90DF91CF91089557
:1006B000CF93DF9300D000D0CDB7DEB79C838B8380
:1006C00019823BC00E94110383708A838A81882328
:1006D00059F48981882F90E02B813C81820F931FF0
:1006E00027E6FC01208326C08A81813059F4898164
:1006F000882F90E02B813C81820F931F29E7FC011A
:10070000208318C08A81823059F48981882F90E033
:100710002B813C81820F931F22E7FC0120830AC0BA
:100720008981882F90E02B813C81820F931F22E6E4
:10073000FC01208389818F5F8983809103019981E6
:10074000981708F4BFCF00000F900F900F900F90F4
:10075000DF91CF910895CF93DF9300D01F92CDB753
:10076000DEB79B838A8319829EC08981882F90E09F
:100770002A813B81820F931FFC0180818736D9F447
:100780008BE290E02BE230E0F90120812160FC0156
:1007900020830E946B0288EE93E00E94E3040E9493
:1007A000D7028BE290E02BE230E0F90120812E7F2E
:1007B000FC01208371C08981882F90E02A813B81D0
:1007C000820F931FFC0180818937D9F48BE290E07E
:1007D0002BE230E0F90120812460FC0120830E949B
:1007E000860288EE93E00E94E3040E94D7028BE227
:1007F00090E02BE230E0F90120812B7FFC01208387
:100800004BC08981882F90E02A813B81820F931F02
:10081000FC0180818237D9F48BE290E02BE230E05A
:10082000F90120812061FC0120830E94A10288EE51
:1008300093E00E94E3040E94D7028BE290E02BE257
:1008400030E0F90120812F7EFC01208325C08981C1
:10085000882F90E02A813B81820F931FFC018081C9
:100860008236D1F48BE290E02BE230E0F901208176
:100870002064FC0120830E94BC0288EE93E00E9469
:10088000E3040E94D7028BE290E02BE230E0F90112
:1008900020812F7BFC01208384EF91E00E94E30400
:1008A00089818F5F8983809103019981981708F46A
:1008B0005CCF00000F900F900F90DF91CF910895C3
:1008C000CF93DF93CDB7DEB78BE290E02BE230E041
:1008D000F90120812160FC0120830E946B028AEFD4
:1008E00090E00E94E3048BE290E02BE230E0F9011B
:1008F00020812460FC0120830E9486028AEF90E020
:100900000E94E3048BE290E02BE230E0F9012081C9
:100910002061FC0120830E94A1028AEF90E00E94E6
:10092000E3048BE290E02BE230E0F90120812064C7
:10093000FC0120830E94BC028AEF90E00E94E30445
:100940000E94D7028BE290E02BE230E0F901208197
:100950002A7AFC012083109200010000DF91CF91E0
:100960000895CF93DF93CDB7DEB70E946B028BE281
:1009700090E02BE230E0F90120812565FC01208325
:1009800088EE93E00E94E3040E94D7028BE290E09D
:100990002BE230E0F90120812A7AFC0120831092B9
:1009A0000001109203010000DF91CF910895000033
:1009B00000C006C000C000C000C000C000C000C031
:1009C0000197C1F70895DC0105C000C000C000C058
:1009D00000C000C087EE93E00E94D7041197A9F7EA
:0609E0000895F894FFCF1A
:0209E60001000E
:00000001FF
