:100000000C9434000C943E000C943E000C943E0082
:100010000C943E000C943E000C943E000C943E0068
:100020000C943E000C943E000C943E000C943E0058
:100030000C943E000C943E000C943E000C943E0048
:100040000C943E000C943E000C943E000C943E0038
:100050000C943E000C943E000C943E000C943E0028
:100060000C943E000C943E0011241FBECFEFD8E04C
:10007000DEBFCDBF0E9440000C940A010C9400002A
:10008000CF93DF9300D000D0CDB7DEB784E290E00D
:1000900022E2FC0120838AE290E02FEFFC01208322
:1000A00085E290E022E0FC01208384EF91E00E9451
:1000B000FC000E94DC00DC01CB0189839A83AB83C6
:1000C000BC8388E893E10E94FC0089819A81AB811E
:1000D000BC81BC01CD010E946E00FFCFCF93DF93A6
:1000E00000D000D0CDB7DEB769837A838B839C8341
:1000F00083E290E023E230E0F90120812062FC01FC
:1001000020832BE230E089819A81AB81BC818B2FE7
:100110009927AA27BB27F901808388E893E10E94E9
:10012000FC0083E290E023E230E0F90120812062CC
:10013000FC0120832BE230E089819A81AB81BC8174
:10014000CD01AA27BB27F901808388E893E10E94AB
:10015000FC0083E290E023E230E0F901208120629C
:10016000FC0120832BE230E089819A81AB81BC8144
:10017000892F9A2FAB2FBB27F901808388E893E161
:100180000E94FC0083E290E023E230E0F90120814C
:100190002062FC0120838BE290E02981FC01208316
:1001A00088E893E10E94FC0000000F900F900F90F0
:1001B0000F90DF91CF910895662777278827992799
:1001C00041E0299853B1517049F0640F711D811DB0
:1001D000911D000000C000C000C0F4CF299A08950E
:1001E000000000C006C000C000C000C000C000C0C9
:1001F00000C00197C1F70895DC0105C000C000C030
:1002000000C000C000C087EE93E00E94F00011978C
:08021000A9F70895F894FFCF4F
:00000001FF
