:100000000C9434000C943E000C943E000C943E0082
:100010000C943E000C943E000C943E000C943E0068
:100020000C943E000C943E000C943E000C943E0058
:100030000C943E000C943E000C943E000C943E0048
:100040000C943E000C943E000C943E000C943E0038
:100050000C943E000C943E000C943E000C943E0028
:100060000C943E000C943E0011241FBECFEFD8E04C
:10007000DEBFCDBF0E9440000C9469000C940000CC
:10008000DFEFDAB9D1E08D2F0E945900D3950E949D
:100090004D000E944D000C944300FFEFEFEF000075
:1000A0000000000000000000000000003197B9F7D8
:1000B0000895CF93DF931F92CDB7DEB789838BE28C
:1000C00090E02981FC01208300000F90DF91CF9107
:0600D0000895F894FFCF33
:00000001FF
