:100000000C9434000C943E000C943E000C943E0082
:100010000C943E000C943E000C943E000C943E0068
:100020000C943E000C943E000C943E000C943E0058
:100030000C943E000C943E000C943E000C943E0048
:100040000C943E000C943E000C943E000C943E0038
:100050000C943E000C943E000C943E000C943E0028
:100060000C943E000C943E0011241FBECFEFD8E04C
:10007000DEBFCDBF0E9440000C94E5000C94000050
:10008000CF93DF93CDB7DEB78AE290E02FEFFC018C
:10009000208361E081E00E94D2000E94D5000E948E
:1000A000A50080E00E94D5000E94A50061E08FE0DD
:1000B0000E94CF000E94D5000E94A50080E10E940E
:1000C000D5000E94A50061E180EF0E94CF000E9450
:1000D000D5000E94A50081E00E94D5000E94A500E5
:1000E00060E180EF0E94D2000E94D5000E94A5002E
:1000F00080EE0E94D5000E94A50060E180E70E948A
:10010000CF000E94D5000E94A50080E80E94D50083
:100110000E94A50060E180EF0E94CF000E94D50000
:100120000E94A50080E00E94D5000E94A50061E821
:1001300080E80E94CF000E94D5000E94A50081E0C7
:100140000E94D5000E94A500A4CFCF93DF9300D0DA
:1001500000D0CDB7DEB78FEF9FEF9A83898313C0AE
:1001600080E490E09C838B8305C08B819C81019708
:100170009C838B838B819C81892BB9F789819A81A0
:1001800001979A83898389819A81892B49F7000095
:100190000F900F900F900F90DF91CF910895860FE1
:1001A0008FB70895861B8FB70895CF93DF931F9263
:1001B000CDB7DEB789838BE290E02981FC012083F3
:0E01C00000000F90DF91CF910895F894FFCFCB
:00000001FF
