:100000000C9434000C9451000C9451000C94510049
:100010000C9451000C9451000C9451000C9451001C
:100020000C9451000C9451000C9451000C9451000C
:100030000C9451000C9451000C9451000C945100FC
:100040000C9451000C9451000C9451000C945100EC
:100050000C9451000C9451000C9451000C945100DC
:100060000C9451000C94510011241FBECFEFD8E026
:10007000DEBFCDBF11E0A0E0B1E0E2ECF5E002C0F0
:1000800005900D92AE30B107D9F721E0AEE0B1E0B6
:1000900001C01D92AC31B207E1F70E9453000C94ED
:1000A000DF020C9400008F92AF92CF92EF920F93E9
:1000B000CF93DF93CDB7DEB785E290E0FC012081DE
:1000C00084E290E0FC0140818BE290E0FC01308111
:1000D0008AE290E0FC01908188E08F936894882404
:1000E00082F86894AA24A1F8CC24C3946894EE24DE
:1000F000E7F800E4632F892F0E94AB010F9080E0A6
:1001000091E00E94A60288EE93E00E94D102FFCF08
:10011000CF93DF93CDB7DEB781E090E00E94C502B8
:100120004091100180910E0190910F0120910E01DC
:1001300030910F01F9012081242BFC01208381E003
:1001400090E00E94C50280911001882F90E0AC01E0
:100150004095509580910E0190910F0120910E01D4
:1001600030910F01F9012081322F242F2323FC012C
:10017000208384E690E00E94C5020000DF91CF91C9
:100180000895CF93DF931F92CDB7DEB7898389811E
:10019000882F90E081709927892B81F0409114017C
:1001A0008091110190911201209111013091120161
:1001B000F9012081242BFC01208316C080911401B9
:1001C000882F90E0AC01409550958091110190915D
:1001D00012012091110130911201F9012081322F79
:1001E000242F2323FC0120838981882F90E08270B3
:1001F0009927892B81F040911801809111019091EC
:1002000012012091110130911201F9012081242B5A
:10021000FC01208316C080911801882F90E0AC016A
:1002200040955095809111019091120120911101FA
:1002300030911201F9012081322F242F2323FC0158
:1002400020838981882F90E084709927892B81F001
:10025000409115018091110190911201209111019D
:1002600030911201F9012081242BFC01208316C05A
:1002700080911501882F90E0AC01409550958091B8
:100280001101909112012091110130911201F90197
:100290002081322F242F2323FC0120838981882F62
:1002A00090E088709927892B81F04091130180910B
:1002B0001101909112012091110130911201F90167
:1002C0002081242BFC01208316C080911301882FEC
:1002D00090E0AC01409550958091110190911201F0
:1002E0002091110130911201F9012081322F242F28
:1002F0002323FC0120830E94880000000F90DF91DF
:10030000CF910895CF93DF931F92CDB7DEB7898346
:1003100080911901882F90E0AC0140955095809113
:100320000E0190910F0120910E0130910F01F90102
:100330002081322F242F2323FC0120838981829561
:100340008F700E94C10089810E94C10000000F903F
:10035000DF91CF9108958F92AF92CF92EF920F934A
:10036000CF93DF93CDB7DEB729970FB6F894DEBFF2
:100370000FBECDBF89836A834B832C830D83EE82AE
:10038000CF82A8868986CE0101969093170180932B
:100390001601CE01029690930F0180930E01CE01BB
:1003A000039690931B0180931A01CE0104969093BB
:1003B0001201809311018E81809310018D818093B1
:1003C00019018F8180931401888580931801898594
:1003D000809315018B898093130180911901282F37
:1003E00030E080911001882F90E0A901480F591F3B
:1003F00080911601909117012091160130911701FB
:10040000F9012081322F242F232BFC01208380919E
:100410001401282F30E080911801882F90E0280FD8
:10042000391F80911501882F90E0280F391F809186
:100430001301882F90E0A901480F591F80911A01DC
:1004400090911B0120911A0130911B01F90120812B
:10045000322F242F232BFC01208380911901282F78
:1004600030E080911001882F90E0820F931FAC0143
:100470004095509580910E0190910F0120910E01B1
:1004800030910F01F9012081322F242F2323FC0109
:10049000208382E390E00E94D10283E00E94C100A9
:1004A00085E090E00E94D10283E00E94C10081E0DB
:1004B00090E00E94D10283E00E94C10081E090E0C0
:1004C0000E94D10282E00E94C10088E20E94820163
:1004D0008CE00E94820181E00E94820182E090E033
:1004E0000E94D10286E00E948201000029960FB688
:1004F000F894DEBF0FBECDBFDF91CF910F91EF908B
:10050000CF90AF908F900895CF93DF931F92CDB788
:10051000DEB789834091190180910E0190910F01FE
:1005200020910E0130910F01F9012081242BFC0153
:100530002083898182958F700E94C10089810E94E9
:10054000C10000000F90DF91CF910895CF93DF930A
:1005500000D0CDB7DEB79A8389830BC089819A8199
:100560009C012F5F3F4F3A832983FC0180810E94C9
:10057000840289819A81FC018081882379F70000B7
:100580000F900F90DF91CF910895000000C006C03A
:1005900000C000C000C000C000C000C00197C1F78B
:1005A0000895DC0105C000C000C000C000C000C04C
:1005B00087EE93E00E94C5021197A9F70895F89479
:0205C000FFCF6B
:0E05C20048656C6C6F2C20576F726C642100C2
:00000001FF
